:020000040800F2
:1000000000500020ED1C0008091C0008111C00080D
:10001000191C0008211C0008291C00080000000011
:10002000000000000000000000000000311C00087B
:100030003D1C000800000000491C0008551C000879
:10004000351D0008351D0008351D0008351D000848
:10005000351D0008351D0008351D0008351D000838
:10006000351D0008351D0008351D0008351D000828
:10007000351D0008351D0008351D0008351D000818
:10008000351D0008351D0008351D0008351D000808
:10009000351D0008351D0008351D0008351D0008F8
:1000A000351D0008351D0008351D0008351D0008E8
:1000B000351D0008351D0008351D0008351D0008D8
:1000C000351D0008351D0008351D0008351D0008C8
:1000D000351D0008611C0008351D0008351D00088D
:1000E000351D0008351D0008351D00080000000002
:1000F0000000000000000000000000000000000000
:0C01000000000000000000005FF808F1A3
:10010C0010B5054C237833B9044B13B10448AFF345
:10011C0000800123237010BD5C0000200000000053
:10012C003444000808B5034B1BB103490348AFF333
:10013C00008008BD0000000060000020344400086E
:10014C00034613F8012B002AFBD1181A013870470B
:10015C0080B400AF044B054A1A60034B044A1A6082
:10016C0000BFBD4680BC7047042002402301674598
:10017C00AB89EFCD80B400AF0A4B1B68094A43F042
:10018C0034031360084B1B68074A23F00303136006
:10019C00054B1B68044A43F08003136000BFBD4647
:1001AC0080BC70470C2002401020024080B500AF8C
:1001BC000A4B34221A600A4B1B6803F08003002B95
:1001CC0001D0FFF7C5FF00BF044B1B6803F0010310
:1001DC00002BF9D100BF00BF80BD00BF0C20024036
:1001EC001020024080B400AF094B1B68084A23F072
:1001FC0003031360074B34221A60054B1B68044A37
:10020C0043F08003136000BFBD4680BC704700BF45
:10021C00102002400C20024080B483B000AF786004
:10022C000B467B800E4B1B680D4A43F00103136099
:10023C007B687A881A8000BF0A4B1B6803F00103A5
:10024C00002BF9D1074B1B6803F01403002B0CBFD8
:10025C0001230023DBB218460C37BD4680BC704727
:10026C00102002400C20024080B582B000AF7860B4
:10027C00244B34221A60244B1B6803F08003002BA0
:10028C0001D0FFF765FF00BF1E4B1B6803F0010395
:10029C00002BF9D11C4B1B681B4A43F00203136063
:1002AC001A4A7B6823F47F7323F003031360164B05
:1002BC001B68154A43F04003136000BF114B1B68C9
:1002CC0003F00103002BF9D10E4B1B6803F0140350
:1002DC00002B03D0FFF74EFF00230FE0094B342215
:1002EC001A60094B1B68084A23F002031360064B83
:1002FC001B68054A43F08003136001231846083736
:10030C00BD4680BD0C20024010200240142002404B
:10031C0080B483B000AF78607B681B78DBB2184682
:10032C000C37BD4680BC704780B483B000AF78609A
:10033C007B681B889BB218460C37BD4680BC704747
:10034C0080B483B000AF78607B681B6818460C37AC
:10035C00BD4680BC704780B584B000AF78600B465A
:10036C00FB707B6803F00103002B08D0FB781BB2F9
:10037C001B021BB243F0FF031BB29BB205E0FB78E0
:10038C001BB263F0FF031BB29BB2FB817B6823F0B3
:10039C000103FA891146184600F005F80346184681
:1003AC001037BD4680BD80B584B000AF78600B4679
:1003BC007B80FFF7FBFE7B8819467868FFF72CFFE4
:1003CC00F860FFF70FFFFB6818461037BD4680BD7D
:1003DC0080B584B000AF78603960FFF7E7FE3B680A
:1003EC009BB219467868FFF717FF0346002B0DD018
:1003FC007B689A1C3B681B0C9BB219461046FFF796
:10040C000BFF0346002B01D0012300E00023FB600F
:10041C00FFF7E8FEFB6818461037BD4680BD80B577
:10042C0084B000AFF860B9607A60FB687A681946EE
:10043C00B86803F09FFB00BF1037BD4680BD80B588
:10044C0084B000AFF860B9607A60F9687B685B00D3
:10045C001A46B86803F08EFB00BF1037BD4680BD4E
:10046C0080B584B000AFF860B9607A60F9687B68D9
:10047C009B001A46B86803F07DFB00BF1037BD46E1
:10048C0080BD80B586B000AFF860B9607A6001239A
:10049C007B6100233B61FFF789FEFB6803F00103DE
:1004AC00002B30D07B68002B2DD0FB6823F0010291
:1004BC00BB681B781BB21B021BB243F0FF031BB2C1
:1004CC009BB219461046FFF7A7FE786101233B61EA
:1004DC0019E0FA683B69D018BA683B6913441B7879
:1004EC001AB23B690133B9680B441B781BB21B026F
:1004FC001BB213431BB29BB21946FFF78DFE7861FA
:10050C003B6902333B617B69002B04D03B690133AF
:10051C007A689A42DDD87B69002B13D03A697B68E4
:10052C009A420FD2FA683B69D018BA683B691344F7
:10053C001B781BB263F0FF031BB29BB21946FFF78B
:10054C006BFE7861FFF74EFE7B6918461837BD4687
:10055C0080BD80B586B000AFF860B9607A60FFF7F7
:10056C0025FE00237B6115E07B695A00FB68D018DF
:10057C007B695B00BA6813441B881946FFF74CFE75
:10058C000346002B03D1FFF72DFE002309E07B6906
:10059C0001337B617A697B689A42E5D3FFF722FECF
:1005AC00012318461837BD4680BD80B586B000AF14
:1005BC00F860B9607A60FFF7F9FD00237B6128E0F1
:1005CC007B699A00FB68D0187B699B00BA6813445E
:1005DC001B689BB21946FFF71FFE0346002B11D078
:1005EC007B699A00FB681344981C7B699B00BA6872
:1005FC0013441B681B0C9BB21946FFF70DFE0346F8
:10060C00002B03D1FFF7EEFD002309E07B690133DA
:10061C007B617A697B689A42D2D3FFF7E3FD0123B1
:10062C0018461837BD4680BD0FB480B582B000AFF8
:10063C0007F114037B607B683A6980210A4803F058
:10064C0047FA0948FFF77CFD03469AB24FF47A73D8
:10065C000549064802F0C6FB00BF0837BD46BDE899
:10066C00804004B0704700BF40010020780000209B
:10067C0080B582B000AF786039603B68002B05D044
:10068C000C4B1B6801330B4A136004E00A4B1B68CC
:10069C000133094A13603B68002B01D0074B00E083
:1006AC00074B7A6819460748FFF7BEFF00BF0837AB
:1006BC00BD4680BD40020020440200204C4400088E
:1006CC00544400085C44000880B582B000AF7860E8
:1006DC0079680348FFF7A8FF00BF0837BD4680BD07
:1006EC006844000880B400AF064B1B6803F080031D
:1006FC00002B14BF01230023DBB21846BD4680BC7F
:10070C00704700BF1020024080B400AF064B1B683E
:10071C0003F01403002B0CBF01230023DBB218469B
:10072C00BD4680BC704700BF0C20024080B58CB029
:10073C0000AF78600023FB621DE07A68FB6A13440B
:10074C0007F1080120221846FFF769FE0023BB625F
:10075C000BE007F10802BB6A13441B78FF2B01D096
:10076C0000230DE0BB6A0133BB62BB6A1F2BF0D9BF
:10077C00FB6A2033FB62FB6AB3F5806FDDD3012388
:10078C0018463037BD4680BD80B58EB000AFF860DE
:10079C00B9607A6000237B6320E07A687B6BD31AA4
:1007AC00202B28BF20233B63FA687B6B134407F193
:1007BC0010013A6B1846FFF732FEBA687B6BD11802
:1007CC0007F110033A6B184603F090F90346002B1F
:1007DC0001D0002307E07B6B20337B637A6B7B6853
:1007EC009A42DAD3012318463837BD4680BD000043
:1007FC0080B582B000AF0C48FFF736FD0346002BE6
:10080C0007D00948FFF792FF0346002B01D00123C4
:10081C0000E000237B6079680448FFF729FF00BFE4
:10082C000837BD4680BD00BF00FC000878440008B6
:10083C00F0B59FB00EAF786239620023FB6358E0CD
:10084C007A6AFB6B134407F12C0110221846FFF750
:10085C00E6FD7A6AFB6BD11897F82C309C4697F81A
:10086C002D309E4697F82E301D4697F82F301E4699
:10087C0097F83030FB6197F83130BB6197F8323024
:10088C007B6197F833303B6197F83430FB6097F815
:10089C003530BB6097F836307B6097F837303B606B
:1008AC0097F838301C4697F83930184697F83A3094
:1008BC001A4697F83B300D930C920B900A943A68B9
:1008CC0009927A680892BA680792FA6806923A69AD
:1008DC0005927A690492BA690392FB6902930196B4
:1008EC000095734662460748FFF79EFEFB6B10337C
:1008FC00FB63FA6B3B6A9A42A2D300BF00BF44373A
:10090C00BD46F0BD9844000880B500AF2C48FFF7F9
:10091C00DBFE2C48FFF7A8FC034619462A48FFF7D4
:10092C00A7FE2848FFF702FF034619462748FFF7A2
:10093C009FFE2448FFF7ECFC0346FF2B0CBF012362
:10094C000023DBB219462248FFF792FE1D48FFF741
:10095C00EBFC03461A464FF6FF739A420CBF012379
:10096C000023DBB219461B48FFF782FE1548FFF740
:10097C00E7FC0346B3F1FF3F0CBF01230023DBB2BE
:10098C0019461548FFF774FE0E48FFF76DFC034639
:10099C00002B07D00B48FFF7C9FE0346002B01D0F4
:1009AC00012300E0002319460C48FFF761FEFFF716
:1009BC0099FE034619460A48FFF75AFE00BF80BD50
:1009CC00F444000800FC0008244500083C450008DD
:1009DC005C4500087C450008A4450008CC4500088F
:1009EC00F045000880B582B000AFAC48FFF76CFE54
:1009FC00FFF7FEFEAA49AB48FFF7EAFC78607B687C
:100A0C001946A948FFF734FEA648FFF799FC0346A0
:100A1C00A34A93420CBF01230023DBB21946A3481F
:100A2C00FFF726FE9F48FFF77FFC03461A4640F26D
:100A3C0001239A420AD19E48FFF776FC03461A46D8
:100A4C0040F203439A4201D1012300E000231946EE
:100A5C009848FFF70DFE9348FFF75AFC0346012B0D
:100A6C0013D19548FFF754FC0346022B0DD1904847
:100A7C00FFF74EFC0346032B07D19048FFF748FCC9
:100A8C000346042B01D1012300E0002319468C48B6
:100A9C00FFF7EEFD4BF6EF618A48FFF784FC7860B8
:100AAC007B6819468848FFF7E3FD8648FFF73CFC56
:100ABC0003461A464BF6EF639A420CBF0123002300
:100ACC00DBB219468148FFF7D3FD7E48FFF720FCC7
:100ADC000346EF2B07D17E48FFF71AFC0346BE2BCB
:100AEC0001D1012300E0002319467A48FFF7C0FD2D
:100AFC007948FFF719FC03461A464FF6FF739A42E2
:100B0C000CBF01230023DBB219467448FFF7B0FD7C
:100B1C005A217348FFF71FFC78607B6819467148AF
:100B2C00FFF7A6FD6E48FFF7F3FB03465A2B07D1E0
:100B3C006D48FFF7EDFB0346FF2B01D1012300E0CD
:100B4C00002319466948FFF793FDA5216848FFF774
:100B5C0002FC78607B6819466648FFF789FD64489B
:100B6C00FFF7D6FB0346A52B07D16348FFF7D0FB55
:100B7C000346FF2B01D1012300E0002319465F48F7
:100B8C00FFF776FDFFF7AEFD034619465C48FFF70D
:100B9C006FFD41F234214B48FFF705FC78607B6810
:100BAC00002B0CBF01230023DBB219465548FFF77D
:100BBC005FFD4448FFF7B8FB03461A464BF6EF635C
:100BCC009A420CBF01230023DBB219464E48FFF7B3
:100BDC004FFD4E493348FFF7FBFB78607B68002BD9
:100BEC000CBF01230023DBB219464948FFF740FD37
:100BFC002C48FFF7A5FB0346294A93420CBF01235F
:100C0C000023DBB219464348FFF732FD112134486B
:100C1C00FFF7A1FB78607B68002B0CBF012300233E
:100C2C00DBB219463C48FFF723FD2D48FFF770FB5C
:100C3C0003465A2B0CBF01230023DBB2194637485D
:100C4C00FFF716FDFFF760FD034619463448FFF722
:100C5C000FFDFFF747FD034619463248FFF708FD25
:100C6C0046F20D013048FFF79EFB78607B68002B45
:100C7C000AD02D48FFF758FB03461A4646F20D03DF
:100C8C009A4201D1012300E0002319462748FFF7BF
:100C9C00EFFC00BF0837BD4680BD00BF1046000802
:100CAC000102030400FC00083C46000854460008FE
:100CBC0002FC00087046000801FC000803FC000858
:100CCC009846000810FC0008BC460008D4460008F2
:100CDC0011FC0008F846000812FC00082047000828
:100CEC0020FC00085047000821FC0008744700084D
:100CFC0033FC00089C47000832FC0008BC47000885
:100D0C00E4470008084800083448000878563412B4
:100D1C00504800087848000890480008B848000877
:100D2C00D0480008F848000840FC0008204900089A
:100D3C0080B5B4B000AFBE48FFF7C6FCFFF758FD56
:100D4C000023C7F8CC3010E0D7F8CC30DBB2603BD6
:100D5C00D9B207F19802D7F8CC3013440A461A706E
:100D6C00D7F8CC300133C7F8CC30D7F8CC30072BC0
:100D7C00EAD907F1980308221946AE48FFF781FB20
:100D8C00C7F8B80007F1780320220021184602F0BA
:100D9C00BDFE07F1780308221946A648FFF73FFB72
:100DAC00D7F8B830002B0CD007F1780107F1980375
:100DBC000822184602F09AFE0346002B01D10123AB
:100DCC0000E0002319469C48FFF752FC0023C7F8AB
:100DDC00C83010E0D7F8C830DBB2503BD9B207F1BD
:100DEC009802D7F8C83013440A461A70D7F8C8309E
:100DFC000133C7F8C830D7F8C830062BEAD907F149
:100E0C009803072219468D48FFF73BFBC7F8B8003B
:100E1C0007F1780320220021184602F077FE07F133
:100E2C007803072219468548FFF7F9FAD7F8B83046
:100E3C00002B0CD007F1780107F198030722184614
:100E4C0002F054FE0346002B01D1012300E00023E5
:100E5C0019467B48FFF70CFC7A48FFF759FA034612
:100E6C00FF2B0CBF01230023DBB219467648FFF79A
:100E7C00FFFB0023C7F8C43010E0D7F8C430DBB256
:100E8C00403BD9B207F19802D7F8C43013440A4654
:100E9C001A70D7F8C4300133C7F8C430D7F8C4304F
:100EAC00052BEAD907F19803062219466748FFF784
:100EBC00E8FAC7F8B80007F1780320220021184699
:100ECC0002F024FE07F17803062219465F48FFF76B
:100EDC00A6FAD7F8B830002B0CD007F1780107F13F
:100EEC0098030622184602F001FE0346002B01D19E
:100EFC00012300E0002319465548FFF7B9FB55487C
:100F0C00FFF706FA0346FF2B0CBF01230023DBB2CD
:100F1C0019465148FFF7ACFB5048FFF7F9F9034667
:100F2C00FF2B0CBF01230023DBB219464C48FFF703
:100F3C009FFB07F19803002219464A48FFF7A1FAD4
:100F4C00C7F8B800D7F8B830002B07D04548FFF7E2
:100F5C00DFF90346FF2B01D1012300E000231946E2
:100F6C004148FFF785FB0023C7F8C03017E0D7F8DE
:100F7C00C0309BB21A4612011A44120113449BB2A0
:100F8C0003F580539AB2D7F8C0305B00D0333B44A2
:100F9C0023F8682CD7F8C0300133C7F8C030D7F825
:100FAC00C030072BE3D907F16803082219462F48F4
:100FBC00FFF7CFFAC7F8B80007F158031022002149
:100FCC00184602F0A3FD07F15803082219462748DA
:100FDC00FFF735FAD7F8B830002B0CD007F15801D1
:100FEC0007F168031022184602F080FD0346002B1F
:100FFC0001D1012300E0002319461D48FFF738FBFF
:10100C001A48FFF79DF90246B7F86A301B04B7F887
:10101C0068100B439A420CBF01230023DBB2194624
:10102C001448FFF725FB0023C7F8BC3034E000BFA1
:10103C004449000800FC00086C49000820FC00082A
:10104C009049000827FC0008B449000841FC00083E
:10105C00E049000840FC0008044A000847FC00086E
:10106C00344A000800FD0008684A000880FC0008AB
:10107C00944A0008B84A0008D7F8BC30A54A1A446C
:10108C00D7F8BC309B00D0333B4443F8982CD7F8AE
:10109C00BC300133C7F8BC30D7F8BC30072BEBD9C8
:1010AC0007F13803082219469B48FFF77EFAC7F868
:1010BC00B80007F1180320220021184602F026FD83
:1010CC0007F11803082219469348FFF7C9F9D7F816
:1010DC00B830002B0CD007F1180107F1380320228F
:1010EC00184602F003FD0346002B01D1012300E05A
:1010FC00002319468948FFF7BBFA8748FFF714F914
:10110C0003461A46BB6B9BB29A420BD18448FFF73D
:10111C000BF903461A46BB6B1B0C9BB29A4201D1CE
:10112C00012300E0002319467E48FFF7A1FA41F2A3
:10113C003423FB8207F11603012219467A48FFF784
:10114C0008FAC7F8B800D7F8B830002B0CBF012349
:10115C000023DBB219467548FFF78AFA7248FFF78D
:10116C00E3F803461A46B7F868309A420CBF0123DD
:10117C000023DBB219466E48FFF77AFA6D4B3B61E0
:10118C0007F11003012219466348FFF70EFAC7F85E
:10119C00B800D7F8B830002B0CBF01230023DBB20A
:1011AC0019466548FFF764FA5B48FFF7C9F8024631
:1011BC00BB6B9A420CBF01230023DBB219465F487C
:1011CC00FFF756FA49F69903BB8107F10C0302228B
:1011DC0019465B48FFF755F9C7F8B800D7F8B8308F
:1011EC00002B0CBF01230023DBB219465548FFF737
:1011FC003FFA5348FFF78CF80346A02B07D152480F
:10120C00FFF786F80346A12B01D1012300E0002350
:10121C0019464E48FFF72CFAFFF776FA03461946A3
:10122C004B48FFF725FAFFF75DFA03461946494884
:10123C00FFF71EFA484A3B1D92E8030083E80300BF
:10124C003B1D042219464548FFF783F9C7F8B8003F
:10125C00D7F8B830002B0CBF01230023DBB21946A2
:10126C003F48FFF705FA3D48FFF75EF803461A467C
:10127C0047F67E639A420CBF01230023DBB219466A
:10128C003848FFF7F5F92848FFF74EF803461A4699
:10129C00B7F868309A420AD13348FFF745F803464D
:1012AC001A46B7F86A309A4201D1012300E00023B4
:1012BC0019462E48FFF7DCF94AF6CD337B80BB1C70
:1012CC00012219462A48FFF744F9C7F8B800D7F8A5
:1012DC00B830002B0AD02648FFF726F803461A46EA
:1012EC004AF6CD339A4201D1012300E0002319467E
:1012FC002048FFF7BDF9204A11492048FFF794F91F
:10130C004FF4A8710E48FFF793FA00BFD037BD46D3
:10131C0080BD00BF00BEADDEC0FC0008E84A00087E
:10132C00C2FC0008084B000880FC0008384B000881
:10133C006C4B0008785634129C4B0008CC4B0008C0
:10134C0000FC0008F84B000801FC0008284C0008C1
:10135C00544C0008844C0008784D00087EFC0008B2
:10136C00AC4C0008D84C000882FC0008084D000862
:10137C0040FD0008344D000850FD0008604D000889
:10138C0080B59CB000AF6148FFF79EF90023FB6667
:10139C000FE0FB6EDBB21A46D200D31ADBB203337A
:1013AC00D9B25B4AFB6E13440A461A70FB6E0133CA
:1013BC00FB66FB6EB3F5806FEBD3FFF719FA4FF4B6
:1013CC00806253495348FFF75CF838663B6E194608
:1013DC005148FFF74DF94FF480624D494D48FFF7E6
:1013EC00D3F9034619464D48FFF742F90023BB6673
:1013FC000BE0BB6E9BB2A3F5B64399B2444ABB6EED
:10140C0022F81310BB6E0133BB66BB6EB3F5007FC5
:10141C00EFD3FFF7EDF94FF400723D493D48FFF76C
:10142C0098F838663B6E19463D48FFF721F94FF4A2
:10143C00806237493748FFF7A7F903461946394800
:10144C00FFF716F900237B660BE07B6E03F1B443C8
:10145C0003F5B4032E497A6E41F822307B6E0133CA
:10146C007B667B6EFF2BF0D9FFF7C2F94FF48072CD
:10147C0027492848FFF799F838663B6E19462A48E1
:10148C00FFF7F6F84FF4806221492248FFF77CF908
:10149C00034619462548FFF7EBF807F12003102205
:1014AC0019462348FEF7DCFF3B461022194620481C
:1014BC00FEF7C5FF07F1200340221E49184602F033
:1014CC0015FB0346002B0CBF01230023DBB219468E
:1014DC001948FFF7CDF83B4620221649184602F072
:1014EC0005FB0346002B0CBF01230023DBB219467E
:1014FC001248FFF7BDF8FFF7F5F8034619461048F8
:10150C00FFF7B6F800BF7037BD4680BD804D0008B0
:10151C004C02002000FC0008B04D0008D84D00081B
:10152C00FC4D0008284E0008504E0008744E000870
:10153C0000FD00084C030020944E0008B44E000837
:10154C00D84E000880B582B000AF4848FFF7BCF811
:10155C004748FFF7EBF80346002B0CBF0123002391
:10156C00DBB219464348FFF783F84348FEF77CFE8D
:10157C00034619464148FFF77BF83D48FFF7D6F87C
:10158C00034619463E48FFF773F83E48FFF7CEF87E
:10159C000346002B55D0FFF72BF93B493948FEF792
:1015AC0017FF0346002B0FD038493948FEF710FFC0
:1015BC000346002B08D037492D48FEF709FF034698
:1015CC00002B01D0012300E000237B607B681946CF
:1015DC003148FFF74DF82648FEF746FE03461946FC
:1015EC002E48FFF745F82248FFF7A0F803461946A6
:1015FC002B48FFF73DF82348FEF7A2FE0346224A8C
:10160C00934208D12248FEF79BFE03461F4A9342A1
:10161C0001D1012300E0002319462248FFF728F8E6
:10162C002148FEF721FE034619462048FFF720F813
:10163C001448FFF77BF8034619461D48FFF718F8C6
:10164C0008E01C4B1B6801331A4A13600D491A48F9
:10165C00FEF7EAFFFFF746F8034619461748FFF76F
:10166C0007F800BF0837BD4680BD00BF044F000817
:10167C0000FC0008184F0008FFFF0008384F000856
:10168C00684F000800F8000844332211887766552B
:10169C00FCFB0008BEBAFECA884F0008AC4F00081D
:1016AC00C84F0008E04F000800FA00080850000876
:1016BC0034500008480200204C500008A850000884
:1016CC0090B583B000AF1123FB703A48FEF7FCFFD6
:1016DC00FFF78EF8FB1C012219463748FEF7D1FEA6
:1016EC0078607B68002B0AD03448FEF71DFE034659
:1016FC001A4641F2FF139A4201D1012300E0002364
:10170C0019462F48FEF7B4FF22212C48FEF723FE82
:10171C0078607B68002B0CBF01230023DBB21946D9
:10172C002848FEF7A5FF2548FEF7FEFD03461A469E
:10173C0041F2FF139A420CBF01230023DBB219467E
:10174C002148FEF795FFFFF753F841F222133B8037
:10175C003B46022219461948FEF793FE78607B68D7
:10176C00002B0AD01548FEF7DFFD03461A4641F25E
:10177C0022139A4201D1012300E000231946134899
:10178C00FEF776FF00210D48FEF70DFE78607B68B2
:10179C00002B01D00E4C00E00E4C0848FEF7C4FDA7
:1017AC0003461A4621460C48FEF73EFF00BF0C3795
:1017BC00BD4690BDC850000801FC000800FC0008A4
:1017CC00F8500008185100085C51000874510008CA
:1017DC009C510008A8510008B451000880B500AF16
:1017EC001C48FEF721FF1C4A1C491D48FEF71CFF34
:1017FC00FFF78AF8FFF7F6F8FFF79AFAFFF7C0FD44
:10180C00FFF7A0FEFFF75CFF1648FEF75DFF1348DD
:10181C00FEF72AFD034619461348FEF729FF0F4829
:10182C00FEF784FF034619461048FEF721FFFEF72A
:10183C0059FF034619460E48FEF71AFF0D4B19685F
:10184C000D4B1A680D4B1B680D48FEF7EDFE00BFE3
:10185C0080BD00BFFC510008FFFF000800FC000821
:10186C0030520008505200085C52000868520008C0
:10187C008C52000840020020440200204802002044
:10188C00A852000880B500AF00F050FA00F02EF816
:10189C0000F09CF800F070F801224FF400510F4852
:1018AC0000F00EFE7F220E490E4801F026FB4FF48D
:1018BC00FA7000F09DFAFFF791FF4FF400510748C2
:1018CC0000F016FE084B1B68002B02D04FF47A7305
:1018DC0000E09623184600F08BFAEEE7001001406A
:1018EC00C0000020780000204402002080B590B099
:1018FC0000AF07F1180328220021184602F006F960
:10190C003B1D00221A605A609A60DA601A6101234A
:10191C00BB614FF48033FB6100233B620123BB624C
:10192C0002237B634FF48033BB634FF4E013FB6300
:10193C0007F11803184600F0F5FD0346002B01D003
:10194C0000F0D0F80F237B600223BB600023FB6008
:10195C004FF480633B6100237B613B1D02211846E1
:10196C0001F062F80346002B01D000F0BBF800BF79
:10197C004037BD4680BD000080B500AF114B124A08
:10198C001A60104B4FF4E1325A600E4B00229A60F1
:10199C000C4B0022DA600B4B00221A61094B0C2213
:1019AC005A61084B00229A61064B0022DA61054805
:1019BC0001F0C8F90346002B01D000F093F800BFEA
:1019CC0080BD00BF780000200038014080B588B091
:1019DC0000AF07F1100300221A605A609A60DA60B7
:1019EC001E4B9B691D4A43F0100393611B4B9B6973
:1019FC0003F01003FB60FB68184B9B69174A43F01C
:101A0C0020039361154B9B6903F02003BB60BB68FB
:101A1C00124B9B69114A43F0040393610F4B9B6972
:101A2C0003F004037B607B6800224FF400510C48E8
:101A3C0000F046FD4FF400533B6101237B61002312
:101A4C00BB610223FB6107F110031946044800F047
:101A5C00B3FB00BF2037BD4680BD00BF0010024065
:101A6C000010014080B582B000AF78600B467B80DF
:101A7C007B681B680B4A93420FD17B880A4A002172
:101A8C00D1547B8801331A460749084802F072F892
:101A9C007F220549064801F030FA00BF0837BD46E1
:101AAC0080BD00BF00380140C0000020C0010020F4
:101ABC007800002080B582B000AF78607B681B682E
:101ACC00054A934204D17F220449054801F015FAD6
:101ADC0000BF0837BD4680BD00380140C000002063
:101AEC007800002080B400AF72B600BF00BFFDE7E5
:101AFC0080B485B000AF154B9B69144A43F00103C9
:101B0C009361124B9B6903F00103BB60BB680F4BE5
:101B1C00DB690E4A43F08053D3610C4BDB6903F055
:101B2C0080537B607B680A4B5B68FB60FB6823F02F
:101B3C00E063FB60FB6843F08063FB60044AFB6876
:101B4C00536000BF1437BD4680BC70470010024084
:101B5C000000014080B588B000AF786007F1100339
:101B6C0000221A605A609A60DA607B681B68204A0F
:101B7C00934239D11F4B9B691E4A43F480439361B6
:101B8C001C4B9B6903F48043FB60FB68194B9B69FE
:101B9C00184A43F004039361164B9B6903F004034A
:101BAC00BB60BB684FF400733B6102237B61032372
:101BBC00FB6107F1100319460F4800F0FDFA4FF4D2
:101BCC0080633B6100237B610023BB6107F1100341
:101BDC001946094800F0F0FA00220021252000F0F7
:101BEC0002FA252000F01BFA00BF2037BD4680BD4D
:101BFC0000380140001002400008014080B400AFE2
:101C0C0000BFFDE780B400AF00BFFDE780B400AFBC
:101C1C0000BFFDE780B400AF00BFFDE780B400AFAC
:101C2C0000BFFDE780B400AF00BFBD4680BC70476D
:101C3C0080B400AF00BFBD4680BC704780B400AF1D
:101C4C0000BFBD4680BC704780B500AF00F0B4F853
:101C5C0000BF80BD80B500AF024801F0ABF900BFFA
:101C6C0080BD00BF7800002080B586B000AF7860E2
:101C7C00144A154BD31A7B617B693B61134B1B6870
:101C8C00002B02D1114B124A1A60104B1A687B6858
:101C9C0013443A699A4207D201F040FF03460C22E2
:101CAC001A604FF0FF3309E0084B1B68FB60074BD1
:101CBC001A687B681344054A1360FB68184618378A
:101CCC00BD4680BD00500020000400004C060020E2
:101CDC00A007002080B400AF00BFBD4680BC704799
:101CEC00FFF7F8FF0B480C490C4A002302E0D458CC
:101CFC00C4500433C4188C42F9D3094A094C00234C
:101D0C0001E013600432A242FBD301F00DFFFFF798
:101D1C00B9FD7047000000205C0000205053000803
:101D2C005C0000209C070020FEE7000080B500AF9F
:101D3C00084B1B68074A43F010031360032000F0A4
:101D4C0047F90F2000F008F8FFF7D2FE00231846E1
:101D5C0080BD00BF0020024080B582B000AF78602B
:101D6C00124B1A68124B1B7819464FF47A73B3FB5B
:101D7C00F1F3B2FBF3F3184600F05FF90346002BC6
:101D8C0001D001230EE07B680F2B0AD80022796862
:101D9C004FF0FF3000F027F9064A7B6813600023F0
:101DAC0000E0012318460837BD4680BD0000002026
:101DBC00080000200400002080B400AF054B1B7805
:101DCC001A46054B1B681344034A136000BFBD46FB
:101DDC0080BC7047080000205006002080B400AF83
:101DEC00024B1B681846BD4680BC7047500600204D
:101DFC0080B584B000AF7860FFF7F0FFB8607B6807
:101E0C00FB60FB68B3F1FF3F05D00A4B1B781A4609
:101E1C00FB681344FB6000BFFFF7E0FF0246BB68A2
:101E2C00D31AFA689A42F7D800BF00BF1037BD46E4
:101E3C0080BD00BF0800002080B485B000AF786082
:101E4C007B6803F00703FB600C4BDB68BB60BA6874
:101E5C004FF6FF031340BB60FB681A02BB681343C9
:101E6C0043F0BF6343F40033BB60044ABB68D360E8
:101E7C0000BF1437BD4680BC704700BF00ED00E0CA
:101E8C0080B400AF044BDB681B0A03F00703184651
:101E9C00BD4680BC704700BF00ED00E080B483B04D
:101EAC0000AF0346FB7197F90730002B0BDBFB7976
:101EBC0003F01F02064997F907305B09012000FA6D
:101ECC0002F241F8232000BF0C37BD4680BC70479E
:101EDC0000E100E080B483B000AF03463960FB71D1
:101EEC0097F90730002B0ADB3B68DAB20C4997F9FB
:101EFC0007301201D2B20B4483F800230AE03B688E
:101F0C00DAB20849FB7903F00F03043B1201D2B299
:101F1C000B441A7600BF0C37BD4680BC704700BF1F
:101F2C0000E100E000ED00E080B489B000AFF860A3
:101F3C00B9607A60FB6803F00703FB61FB69C3F1CE
:101F4C000703042B28BF0423BB61FB690433062B56
:101F5C0002D9FB69033B00E000237B614FF0FF32A9
:101F6C00BB6902FA03F3DA43BB681A407B699A40F7
:101F7C004FF0FF317B6901FA03F3D9437B680B40C7
:101F8C00134318462437BD4680BC704780B582B0D9
:101F9C0000AF78607B68013BB3F1807F01D30123F4
:101FAC000FE00A4A7B68013B53600F214FF0FF3072
:101FBC00FFF790FF054B00229A60044B07221A6032
:101FCC00002318460837BD4680BD00BF10E000E076
:101FDC0080B582B000AF78607868FFF72DFF00BF46
:101FEC000837BD4680BD80B586B000AF0346B960EA
:101FFC007A60FB7300237B61FFF742FF78617A689C
:10200C00B9687869FFF790FF024697F90F301146CF
:10201C001846FFF75FFF00BF1837BD4680BD80B57F
:10202C0082B000AF0346FB7197F907301846FFF7F3
:10203C0035FF00BF0837BD4680BD80B582B000AF0C
:10204C0078607868FFF7A2FF034618460837BD464C
:10205C0080BD80B485B000AF78600023FB737B68D3
:10206C0093F82130DBB2022B08D07B6804229A63F0
:10207C007B68002283F82020012320E07B681B680A
:10208C001A687B681B6822F00E021A607B681B685A
:10209C001A687B681B6822F001021A607B681A6C54
:1020AC007B68DB6B012101FA02F25A607B6801222A
:1020BC0083F821207B68002283F82020FB7B1846C4
:1020CC001437BD4680BC704780B584B000AF7860D3
:1020DC000023FB737B6893F82130DBB2022B05D015
:1020EC007B6804229A630123FB7351E07B681B68B5
:1020FC001A687B681B6822F00E021A607B681B68EA
:10210C001A687B681B6822F001021A607B681B68E6
:10211C00224A934229D07B681B68214A934222D0E1
:10212C007B681B681F4A93421AD07B681B681E4A47
:10213C00934212D07B681B681C4A93420AD07B687E
:10214C001B681B4A934202D14FF480130EE04FF0F0
:10215C0080730BE04FF4803308E04FF4805305E0BC
:10216C004FF4807302E0102300E00123114A536006
:10217C007B68012283F821207B68002283F82020D1
:10218C007B685B6B002B03D07B685B6B7868984734
:10219C00FB7B18461037BD4680BD00BF08000240CF
:1021AC001C00024030000240440002405800024033
:1021BC006C0002400000024080B48BB000AF78602D
:1021CC00396000237B6200233B6269E101227B6A58
:1021DC0002FA03F3FB613B681B68FA691340BB61AD
:1021EC00BA69FB699A4240F058813B685B689A4A2D
:1021FC0093425ED0984A934275D8984A934258D0ED
:10220C00964A93426FD8964A934252D0944A93423C
:10221C0069D8944A93424CD0924A934263D8924ADA
:10222C00934246D0904A93425DD8122B2AD8122B57
:10223C0059D801A252F823F0BF22000899220008B5
:10224C00AB220008ED220008F3220008F32200085C
:10225C00F3220008F3220008F3220008F3220008FE
:10226C00F3220008F3220008F3220008F3220008EE
:10227C00F3220008F3220008F3220008A122000830
:10228C00B5220008794A934213D02CE03B68DB68F6
:10229C003B6229E03B68DB6804333B6224E03B682B
:1022AC00DB6808333B621FE03B68DB680C333B6246
:1022BC001AE03B689B68002B02D104233B6213E0BD
:1022CC003B689B68012B05D108233B627B68FA694C
:1022DC001A6109E008233B627B68FA695A6103E0E2
:1022EC0000233B6200E000BFBB69FF2B01D87B6879
:1022FC0001E07B6804337B61BB69FF2B02D87B6AEE
:10230C009B0002E07B6A083B9B003B617B691A687F
:10231C000F213B6901FA03F3DB431A40396A3B692D
:10232C0001FA03F31A437B691A603B685B6803F09C
:10233C008053002B00F0B1804D4B9B694C4A43F00D
:10234C00010393614A4B9B6903F00103BB60BB68BB
:10235C00484A7B6A9B08023352F82330FB607B6A45
:10236C0003F003039B000F2202FA03F3DB43FA682A
:10237C001340FB607B68404A934213D07B683F4A12
:10238C0093420DD07B683E4A934207D07B683D4A0E
:10239C00934201D1032306E0042304E0022302E06C
:1023AC00012300E000237A6A02F0030292009340BA
:1023BC00FA681343FB602F497B6A9B080233FA6867
:1023CC0041F823203B685B6803F48013002B06D094
:1023DC002D4B9A682C49BB6913438B6006E02A4B42
:1023EC009A68BB69DB43284913408B603B685B6888
:1023FC0003F40013002B06D0234BDA682249BB6987
:10240C001343CB6006E0204BDA68BB69DB431E4903
:10241C001340CB603B685B6803F40033002B06D0A1
:10242C00194B5A681849BB6913434B6006E0164BAD
:10243C005A68BB69DB43144913404B603B685B68CB
:10244C0003F48033002B21D00F4B1A680E49BB6963
:10245C0013430B6021E000BF00003210000031106C
:10246C0000002210000021100000121000001110BA
:10247C00001002400000014000080140000C014027
:10248C000010014000140140000401400B4B1A687D
:10249C00BB69DB43094913400B607B6A01337B62E8
:1024AC003B681A687B6A22FA03F3002B7FF48EAE2A
:1024BC0000BF00BF2C37BD4680BC704700040140F4
:1024CC0080B483B000AF78600B467B8013467B7082
:1024DC007B78002B03D07A887B681A6103E07B88B9
:1024EC001A047B681A6100BF0C37BD4680BC70476C
:1024FC0080B485B000AF78600B467B807B68DB686E
:10250C00FB607A88FB6813401A04FB68D9437B880C
:10251C000B401A437B681A6100BF1437BD4680BC60
:10252C007047000080B586B000AF78607B68002BE8
:10253C0001D1012372E27B681B6803F00103002BBD
:10254C0000F08780924B5B6803F00C03042B0CD0DB
:10255C008F4B5B6803F00C03082B12D18C4B5B6820
:10256C0003F48033B3F5803F0BD1894B1B6803F424
:10257C000033002B6CD07B685B68002B68D1012387
:10258C004CE27B685B68B3F5803F06D1804B1B68DF
:10259C007F4A43F4803313602EE07B685B68002B2A
:1025AC000CD17B4B1B687A4A23F480331360784B35
:1025BC001B68774A23F4802313601DE07B685B68FB
:1025CC00B3F5A02F0CD1724B1B68714A43F48023D6
:1025DC0013606F4B1B686E4A43F4803313600BE03F
:1025EC006B4B1B686A4A23F480331360684B1B687F
:1025FC00674A23F4802313607B685B68002B13D03D
:10260C00FFF7ECFB386108E0FFF7E8FB02463B699B
:10261C00D31A642B01D9032300E25D4B1B6803F42E
:10262C000033002BF0D014E0FFF7D8FB386108E042
:10263C00FFF7D4FB02463B69D31A642B01D9032361
:10264C00ECE1534B1B6803F40033002BF0D100E09A
:10265C0000BF7B681B6803F00203002B63D04C4B5C
:10266C005B6803F00C03002B0BD0494B5B6803F049
:10267C000C03082B1CD1464B5B6803F48033002BF6
:10268C0016D1434B1B6803F00203002B05D07B686B
:10269C001B69012B01D00123C0E13D4B1B6823F0CA
:1026AC00F8027B685B69DB00394913430B603AE045
:1026BC007B681B69002B20D0364B01221A60FFF778
:1026CC008DFB386108E0FFF789FB02463B69D31AA2
:1026DC00022B01D90323A1E12D4B1B6803F002034C
:1026EC00002BF0D02A4B1B6823F0F8027B685B6947
:1026FC00DB00274913430B6015E0264B00221A60C0
:10270C00FFF76CFB386108E0FFF768FB02463B699A
:10271C00D31A022B01D9032380E11D4B1B6803F054
:10272C000203002BF0D17B681B6803F00803002B1D
:10273C003AD07B689B69002B19D0174B01221A6089
:10274C00FFF74CFB386108E0FFF748FB02463B699A
:10275C00D31A022B01D9032360E10D4B5B6A03F002
:10276C000203002BF0D0012000F0CEFA1CE00A4B43
:10277C0000221A60FFF732FB38610FE0FFF72EFBE7
:10278C0002463B69D31A022B08D9032346E100BF4A
:10279C00001002400000424280044242924B5B6AAD
:1027AC0003F00203002BE9D17B681B6803F00403E0
:1027BC00002B00F0A6800023FB758B4BDB6903F02C
:1027CC008053002B0DD1884BDB69874A43F0805333
:1027DC00D361854BDB6903F08053BB60BB6801237D
:1027EC00FB75824B1B6803F48073002B18D17F4B55
:1027FC001B687E4A43F480731360FFF7EFFA38616D
:10280C0008E0FFF7EBFA02463B69D31A642B01D9B7
:10281C00032303E1754B1B6803F48073002BF0D08A
:10282C007B68DB68012B06D16F4B1B6A6E4A43F049
:10283C00010313622DE07B68DB68002B0CD16A4B23
:10284C001B6A694A23F001031362674B1B6A664AD1
:10285C0023F0040313621CE07B68DB68052B0CD1AE
:10286C00614B1B6A604A43F0040313625E4B1B6AA4
:10287C005D4A43F0010313620BE05B4B1B6A5A4A3F
:10288C0023F001031362584B1B6A574A23F00403CD
:10289C0013627B68DB68002B15D0FFF79FFA386159
:1028AC000AE0FFF79BFA02463B69D31A41F28832E1
:1028BC00934201D90323B1E04B4B1B6A03F0020393
:1028CC00002BEED014E0FFF789FA38610AE0FFF72D
:1028DC0085FA02463B69D31A41F28832934201D9F8
:1028EC0003239BE0404B1B6A03F00203002BEED149
:1028FC00FB7D012B05D13C4BDB693B4A23F080531C
:10290C00D3617B68DB69002B00F08780364B5B68FA
:10291C0003F00C03082B61D07B68DB69022B46D1DA
:10292C00334B00221A60FFF759FA386108E0FFF7C1
:10293C0055FA02463B69D31A022B01D903236DE0E9
:10294C00294B1B6803F00073002BF0D17B681B6ACA
:10295C00B3F5803F08D1244B5B6823F400327B68CD
:10296C009B68214913434B601F4B5B6823F4741223
:10297C007B68196A7B685B6A0B431B4913434B608A
:10298C001B4B01221A60FFF729FA386108E0FFF7A8
:10299C0025FA02463B69D31A022B01D903233DE0E9
:1029AC00114B1B6803F00073002BF0D035E0104B7B
:1029BC0000221A60FFF712FA386108E0FFF70EFAEE
:1029CC0002463B69D31A022B01D9032326E0064B9E
:1029DC001B6803F00073002BF0D11EE07B68DB69F1
:1029EC00012B07D1012319E00010024000700040B8
:1029FC00600042420B4B5B68FB60FB6803F4803267
:102A0C007B681B6A9A4206D1FB6803F470127B68E0
:102A1C005B6A9A4201D0012300E000231846183764
:102A2C00BD4680BD0010024080B584B000AF786018
:102A3C0039607B68002B01D10123D0E06A4B1B6805
:102A4C0003F007033A689A4210D9674B1B6823F0CE
:102A5C00070265493B6813430B60634B1B6803F02B
:102A6C0007033A689A4201D00123B8E07B681B68DF
:102A7C0003F00203002B20D07B681B6803F00403D7
:102A8C00002B05D0594B5B68584A43F4E063536004
:102A9C007B681B6803F00803002B05D0534B5B6865
:102AAC00524A43F460535360504B5B6823F0F0027E
:102ABC007B689B684D4913434B607B681B6803F034
:102ACC000103002B40D07B685B68012B07D1474B7F
:102ADC001B6803F40033002B15D101237FE07B68C6
:102AEC005B68022B07D1414B1B6803F00073002B72
:102AFC0009D1012373E03D4B1B6803F00203002B4B
:102B0C0001D101236BE0394B5B6823F003027B6836
:102B1C005B68364913434B60FFF760F9F8600AE0D5
:102B2C00FFF75CF90246FB68D31A41F288329342F4
:102B3C0001D9032353E02D4B5B6803F00C027B6837
:102B4C005B689B009A42EBD1274B1B6803F0070391
:102B5C003A689A4210D2244B1B6823F00702224990
:102B6C003B6813430B60204B1B6803F007033A6868
:102B7C009A4201D0012332E07B681B6803F0040306
:102B8C00002B08D0194B5B6823F4E0627B68DB6890
:102B9C00164913434B607B681B6803F00803002B3A
:102BAC0009D0124B5B6823F460527B681B69DB0015
:102BBC000E4913434B6000F021F802460B4B5B6847
:102BCC001B0903F00F030A49CB5C22FA03F3094AF1
:102BDC001360094B1B681846FFF7BEF80023184614
:102BEC001037BD4680BD00BF0020024000100240DF
:102BFC00E0520008000000200400002080B487B0E0
:102C0C0000AF0023FB600023BB6000237B6100232B
:102C1C007B6000233B611E4B5B68FB60FB6803F031
:102C2C000C03042B02D0082B03D027E0194B3B617B
:102C3C0027E0FB689B0C03F00F03174AD35C7B6007
:102C4C00FB6803F48033002B10D0114B5B685B0CDA
:102C5C0003F00103114AD35CBB607B680D4A03FB94
:102C6C0002F2BB68B2FBF3F37B6104E07B680C4AB5
:102C7C0002FB03F37B617B693B6102E0054B3B612B
:102C8C0000BF3B6918461C37BD4680BC704700BF6F
:102C9C000010024000127A00F85200080853000895
:102CAC0000093D0080B400AF024B1B681846BD46BE
:102CBC0080BC70470000002080B500AFFFF7F2FF2A
:102CCC000246054B5B681B0A03F007030349CB5C08
:102CDC0022FA03F3184680BD00100240F05200089F
:102CEC0080B500AFFFF7DEFF0246054B5B68DB0AE1
:102CFC0003F007030349CB5C22FA03F3184680BDAB
:102D0C0000100240F052000880B485B000AF78602B
:102D1C000A4B1B680A4AA2FB03235B0A7A6802FB74
:102D2C0003F3FB6000BFFB685A1EFA60002BF9D15D
:102D3C0000BF00BF1437BD4680BC704700000020A8
:102D4C00D34D621080B582B000AF78607B68002BE9
:102D5C0001D1012342E07B6893F84130DBB2002BB8
:102D6C0006D17B68002283F840207868FEF7F2FEDB
:102D7C007B68242283F841207B681B68DA687B68B7
:102D8C001B6822F40052DA60786800F0E5FD7B687D
:102D9C001B681A697B681B6822F490421A617B6875
:102DAC001B685A697B681B6822F02A025A617B688F
:102DBC001B68DA687B681B6842F40052DA607B6837
:102DCC0000225A647B68202283F841207B682022F1
:102DDC0083F842207B6800225A6300231846083788
:102DEC00BD4680BD80B58AB002AFF860B9603B606B
:102DFC001346FB8000237B61FB6893F84130DBB208
:102E0C00202B75D1BB68002B02D0FB88002B01D185
:102E1C0001236EE0FB6800225A64FB68212283F8D0
:102E2C004120FEF7DBFF7861FB68FA889A84FB6827
:102E3C00FA88DA84FB689B68B3F5805F08D1FB687D
:102E4C001B69002B04D10023FB61BB68BB6103E051
:102E5C00BB68FB610023BB612EE03B6800937B6980
:102E6C0000228021F86800F049FB0346002B05D0B6
:102E7C00FB68202283F8412003233AE0FB69002BF6
:102E8C000BD1BB691B881A46FB681B68C2F308028E
:102E9C005A60BB690233BB6107E0FB691A78FB68B7
:102EAC001B685A60FB690133FB61FB68DB8C9BB2CE
:102EBC00013B9AB2FB68DA84FB68DB8C9BB2002B7B
:102ECC00CBD13B6800937B6900224021F86800F06D
:102EDC0015FB0346002B05D0FB68202283F841200C
:102EEC00032306E0FB68202283F84120002300E046
:102EFC00022318462037BD4680BD80B58CB000AF8C
:102F0C00F860B9601346FB80FB6893F84230DBB283
:102F1C00202B4AD1BB68002B02D0FB88002B01D19F
:102F2C00012343E0FB6801221A63FB6800225A6309
:102F3C00FB881A46B968F86800F039FB034687F835
:102F4C002F3097F82F30002B2CD1FB681B6B012BEB
:102F5C0025D100233B61FB681B681B683B61FB6848
:102F6C001B685B683B613B69FB681B680C33BB618E
:102F7C00BB6953E8003F7B617B6943F01003BB6284
:102F8C00FB681B680C33BA6A7A623B62396A7A6AEC
:102F9C0041E80023FB61FB69002BE5D102E0012332
:102FAC0087F82F3097F82F3000E00223184630377F
:102FBC00BD4680BD80B5BAB000AF78607B681B6839
:102FCC001B68C7F8E4307B681B68DB68C7F8E03027
:102FDC007B681B685B69C7F8DC300023C7F8D83006
:102FEC000023C7F8D430D7F8E43003F00F03C7F848
:102FFC00D830D7F8D830002B0FD1D7F8E43003F005
:10300C002003002B09D0D7F8E03003F02003002B6D
:10301C0003D0786800F0E1FB5BE2D7F8D830002BE6
:10302C0000F0DE80D7F8DC3003F00103002B06D172
:10303C00D7F8E03003F49073002B00F0D180D7F870
:10304C00E43003F00103002B0BD0D7F8E03003F48D
:10305C008073002B05D07B685B6C43F001027B68AE
:10306C005A64D7F8E43003F00403002B0BD0D7F8E4
:10307C00DC3003F00103002B05D07B685B6C43F064
:10308C0002027B685A64D7F8E43003F00203002B89
:10309C000BD0D7F8DC3003F00103002B05D07B6894
:1030AC005B6C43F004027B685A64D7F8E43003F09D
:1030BC000803002B11D0D7F8E03003F02003002BCD
:1030CC0005D1D7F8DC3003F00103002B05D07B6869
:1030DC005B6C43F008027B685A647B685B6C002B6A
:1030EC0000F0F281D7F8E43003F02003002B08D075
:1030FC00D7F8E03003F02003002B02D0786800F002
:10310C006CFB7B681B685B6903F04003002B14BFEE
:10311C0001230023DBB2C7F8D4307B685B6C03F06F
:10312C000803002B03D1D7F8D430002B4FD078688C
:10313C0000F076FA7B681B685B6903F04003002B98
:10314C0041D07B681B681433C7F89C30D7F89C308F
:10315C0053E8003FC7F89830D7F8983023F0400375
:10316C00C7F8D0307B681B681433D7F8D020C7F869
:10317C00A820C7F8A430D7F8A410D7F8A82041E8A5
:10318C000023C7F8A030D7F8A030002BD9D17B682A
:10319C00DB6B002B13D07B68DB6B7E4A5A637B683E
:1031AC00DB6B1846FEF790FF0346002B16D07B68AE
:1031BC00DB6B5B6B7A68D26B104698470EE07868D5
:1031CC00FEF778FC0AE07868FEF774FC06E0786895
:1031DC00FEF770FC7B6800225A6475E100BF73E156
:1031EC007B681B6B012B40F04F81D7F8E43003F068
:1031FC001003002B00F04881D7F8E03003F01003E7
:10320C00002B00F041810023BB607B681B681B68AE
:10321C00BB607B681B685B68BB60BB687B681B68BA
:10322C005B6903F04003002B00F0B6807B68DB6B1E
:10323C001B685B68A7F8BE30B7F8BE30002B00F0F7
:10324C0045817B689B8DB7F8BE209A4280F03E8109
:10325C007B68B7F8BE20DA857B68DB6B9B69202B1B
:10326C0000F088807B681B680C33C7F88830D7F86F
:10327C00883053E8003FC7F88430D7F8843023F403
:10328C008073C7F8B8307B681B680C33D7F8B8204C
:10329C00C7F89420C7F89030D7F89010D7F894203E
:1032AC0041E80023C7F88C30D7F88C30002BD9D1EB
:1032BC007B681B6814337B677B6F53E8003F3B676D
:1032CC003B6F23F00103C7F8B4307B681B681433E1
:1032DC00D7F8B420C7F88020FB67F96FD7F88020A7
:1032EC0041E80023BB67BB6F002BE1D17B681B68F7
:1032FC0014333B663B6E53E8003FFB65FB6D23F0DC
:10330C004003C7F8B0307B681B681433D7F8B02083
:10331C00FA66BB66B96EFA6E41E800237B667B6E7B
:10332C00002BE3D17B68202283F842207B680022AB
:10333C001A637B681B680C33FB64FB6C53E8003F1F
:10334C00BB64BB6C23F01003C7F8AC307B681B6804
:10335C000C33D7F8AC20BA657B65796DBA6D41E852
:10336C0000233B653B6D002BE3D17B68DB6B184680
:10337C00FEF76FFE7B6802225A637B689A8D7B682E
:10338C00DB8D9BB2D31A9BB219467868FEF76AFBA9
:10339C009CE000BFF13600087B689A8D7B68DB8D62
:1033AC009BB2D31AA7F8CE307B68DB8D9BB2002B77
:1033BC0000F08E80B7F8CE30002B00F089807B684F
:1033CC001B680C33BB63BB6B53E8003F7B637B6BAD
:1033DC0023F49073C7F8C8307B681B680C33D7F89C
:1033EC00C8207A643B64396C7A6C41E80023FB6337
:1033FC00FB6B002BE3D17B681B6814337B627B6A0D
:10340C0053E8003F3B623B6A23F00103C7F8C4302A
:10341C007B681B681433D7F8C4203A63FB62F96AE3
:10342C003A6B41E80023BB62BB6A002BE3D17B689B
:10343C00202283F842207B6800221A637B681B6879
:10344C000C333B613B6953E8003FFB60FB6823F0A6
:10345C001003C7F8C0307B681B680C33D7F8C0204A
:10346C00FA61BB61B969FA6941E800237B617B6948
:10347C00002BE3D17B6802225A63B7F8CE30194691
:10348C007868FEF7EFFA23E0D7F8E43003F0800316
:10349C00002B09D0D7F8E03003F08003002B03D0C9
:1034AC00786800F033F914E0D7F8E43003F0400307
:1034BC00002B0ED0D7F8E03003F04003002B08D0DF
:1034CC00786800F072F904E000BF02E000BF00E091
:1034DC0000BFE837BD4680BD80B483B000AF7860D4
:1034EC0000BF0C37BD4680BC704780B483B000AFC2
:1034FC00786000BF0C37BD4680BC704780B586B085
:10350C0000AFF860B9603B601346FB713BE03B6A6F
:10351C00B3F1FF3F37D0FEF761FC02463B68D31A8C
:10352C003A6A9A4202D33B6A002B01D103233AE058
:10353C00FB681B68DB6803F00403002B23D0BB681B
:10354C00802B20D0BB68402B1DD0FB681B681B68F0
:10355C0003F00803082B16D100237B61FB681B6862
:10356C001B687B61FB681B685B687B617B69F86827
:10357C0000F056F8FB6808225A64FB68002283F8B6
:10358C00402001230FE0FB681B681A68BB681340DE
:10359C00BA689A420CBF01230023DBB21A46FB79AE
:1035AC009A42B4D0002318461837BD4680BD80B46B
:1035BC0085B000AFF860B9601346FB80FB68BA6851
:1035CC009A62FB68FA889A85FB68FA88DA85FB6848
:1035DC0000225A64FB68222283F84220FB681B6994
:1035EC00002B07D0FB681B68DA68FB681B6842F489
:1035FC008072DA60FB681B685A69FB681B6842F0D2
:10360C0001025A61FB681B68DA68FB681B6842F0B0
:10361C002002DA60002318461437BD4680BC704780
:10362C0080B495B000AF78607B681B680C337B630B
:10363C007B6B53E8003F3B633B6B23F49073FB6461
:10364C007B681B680C33FA6C3A64FB63F96B3A6C5D
:10365C0041E80023BB63BB6B002BE5D17B681B6887
:10366C0014333B623B6A53E8003FFB61FB6923F078
:10367C000103BB647B681B681433BA6CFA62BB62CF
:10368C00B96AFA6A41E800237B627B6A002BE5D1B8
:10369C007B681B6B012B19D17B681B680C33FB609F
:1036AC00FB6853E8003FBB60BB6823F010037B64EE
:1036BC007B681B680C337A6CBA617B617969BA6977
:1036CC0041E800233B613B69002BE5D17B6820225C
:1036DC0083F842207B6800221A6300BF5437BD4632
:1036EC0080BC704780B584B000AF78607B685B6A43
:1036FC00FB60FB680022DA85FB680022DA84F8683C
:10370C00FEF7D8F900BF1037BD4680BD80B485B038
:10371C0000AF78607B6893F84130DBB2212B3ED14F
:10372C007B689B68B3F5805F14D17B681B69002BA9
:10373C0010D17B681B6AFB60FB681B881A467B6890
:10374C001B68C2F308025A607B681B6A9A1C7B6870
:10375C001A6208E07B681B6A591C7A6811621A7835
:10376C007B681B685A607B68DB8C9BB2013B9BB20D
:10377C007A681946D184002B0FD17B681B68DA68F4
:10378C007B681B6822F08002DA607B681B68DA6851
:10379C007B681B6842F04002DA60002300E00223E1
:1037AC0018461437BD4680BC704780B582B000AF58
:1037BC0078607B681B68DA687B681B6822F04002C3
:1037CC00DA607B68202283F841207868FFF784FE5A
:1037DC00002318460837BD4680BD80B58CB000AFBD
:1037EC0078607B6893F84230DBB2222B40F0AE80DD
:1037FC007B689B68B3F5805F17D17B681B69002BD6
:10380C0013D10023FB627B689B6ABB627B681B68DD
:10381C005B689BB2C3F308039AB2BB6A1A807B68DD
:10382C009B6A9A1C7B689A6226E07B689B6AFB62A7
:10383C000023BB627B689B68B3F5805F07D07B6815
:10384C009B68002B0AD17B681B69002B06D17B6817
:10385C001B685B68DAB2FB6A1A7008E07B681B684D
:10386C005B68DBB203F07F03DAB2FB6A1A707B6829
:10387C009B6A5A1C7B689A627B68DB8D9BB2013B0E
:10388C009BB27A681946D185002B5DD17B681B6889
:10389C00DA687B681B6822F02002DA607B681B68A0
:1038AC00DA687B681B6822F48072DA607B681B68BC
:1038BC005A697B681B6822F001025A617B682022DE
:1038CC0083F842207B6800225A637B681B6B012BB8
:1038DC0035D17B6800221A637B681B680C337B61D3
:1038EC007B6953E8003F3B613B6923F010037B622B
:1038FC007B681B680C337A6A3A62FB61F9693A6A35
:10390C0041E80023BB61BB69002BE5D17B681B68D8
:10391C001B6803F01003102B0AD10023FB607B689B
:10392C001B681B68FB607B681B685B68FB60FB6843
:10393C007B689B8D19467868FEF794F802E07868EE
:10394C00FFF7D3FD002302E0002300E0022318461A
:10395C003037BD4680BD000080B584B000AF7860C4
:10396C007B681B681B6923F440517B68DA687B68B1
:10397C001B680A431A617B689A687B681B691A4347
:10398C007B685B691343BB607B681B68DB6823F453
:10399C00B05323F00C037A681268B9680B43D360F8
:1039AC007B681B685B6923F440717B689A697B6850
:1039BC001B680A435A617B681B682C4A934203D1EB
:1039CC00FFF78EF9F86002E0FFF776F9F860FA6815
:1039DC0013469B0013449A001A447B685B689B0057
:1039EC00B2FBF3F3224AA2FB03235B091901FA6829
:1039FC0013469B0013449A001A447B685B689B0037
:103A0C00B2FBF3F21A4BA3FB02035B09642000FB2D
:103A1C0003F3D31A1B013233154AA2FB03235B09B0
:103A2C0003F0F0031944FA6813469B0013449A0000
:103A3C001A447B685B689B00B2FBF3F20C4BA3FB54
:103A4C0002035B09642000FB03F3D31A1B0132331E
:103A5C00074AA2FB03235B0903F00F027B681B6878
:103A6C000A449A6000BF1037BD4680BD0038014043
:103A7C001F85EB5130B51446002C05461A469BB0F9
:103A8C0005DA8B2303604FF0FF301BB030BD4FF4D1
:103A9C000273ADF80C304FF0000319930CBF2346A2
:103AAC0004F1FF33029305934FF6FF7300910491D9
:103ABC00ADF80E3069461E9B00F0BCF9431CBCBF30
:103ACC008B232B60002CE0D00022009B1A70DCE7CB
:103ADC0007B5009313460A46014603480068FFF7F2
:103AEC00C9FF03B05DF804FB0C00002010B50139D0
:103AFC000244904201D1002005E0037811F8014FF7
:103B0C00A34201D0181B10BD0130F2E7034602445A
:103B1C00934200D1704703F8011BF9E7014B186879
:103B2C00704700BF0C00002070B500260C4D0D4CEA
:103B3C00641BA410A64209D100F076FC00260A4DA5
:103B4C000A4C641BA410A64205D170BD55F8043B69
:103B5C0098470136EEE755F8043B98470136F2E7F3
:103B6C004853000848530008485300084C530008B9
:103B7C00704770470A44914200F1FF3300D17047FF
:103B8C0010B511F8014B914203F8014FF9D110BD5A
:103B9C0038B50546002940D051F8043C0C1F002BC9
:103BAC00B8BFE41800F0DEF81C4A136833B9636040
:103BBC0014602846BDE8384000F0DAB8A34208D9B2
:103BCC00206821188B4201BF19685B6809182160B5
:103BDC00EDE71A465B680BB1A342FAD9116850188D
:103BEC00A0420BD120680144501883421160E0D1EF
:103BFC0018685B68084410605360DAE702D90C233C
:103C0C002B60D6E7206821188B4201BF19685B68CE
:103C1C000918216063605460CBE738BD9807002019
:103C2C0070B50F4E0C463168054611B900F0A8FB73
:103C3C0030602146284600F0A3FB431C03D14FF013
:103C4C00FF34204670BDC41C24F00304A042F8D0FD
:103C5C00211A284600F094FB0130F2D1EFE700BFA7
:103C6C00940700202DE9F843CD1C25F003050835F9
:103C7C000C2D38BF0C25002D064601DBA94204D9BA
:103C8C000C2333600020BDE8F883DFF8D48000F00B
:103C9C0069F8D8F800301C4644BB29463046FFF77B
:103CAC00BFFF431C044658D1D8F800402746002FCC
:103CBC0043D1002C4BD023683946304604EB030922
:103CCC0000F05EFB814542D1216830466D1A2946D1
:103CDC00FFF7A6FF01303AD023682B442360D8F8B5
:103CEC0000305A6862BBC8F800700FE02268521BA3
:103CFC0020D40B2A17D96119A342256018BF59602B
:103D0C00636808BFC8F8001062514B60304600F081
:103D1C002FF804F10B00231D20F00700C21A1CBF62
:103D2C001B1AA350AFE76268A3420CBFC8F800206F
:103D3C005A60EBE723466468AEE73C467F68B6E71B
:103D4C001A465B68A342FBD100235360DEE70C23C9
:103D5C003046336000F00CF894E70560D6E700BFFE
:103D6C00980700200148FFF703BF00BF9007002011
:103D7C000148FFF7FEBE00BF900700202DE9F04779
:103D8C001F468E688246BE420C4690460B682DD864
:103D9C00B1F90C2012F4906F26D06569096905EB16
:103DAC004505A3EB010905EBD5757B1C4B446D1048
:103DBC009D4238BF1D46530527D52946FFF752FFB4
:103DCC00064660B34A462169FFF7D4FEA38923F463
:103DDC00906343F08003A38126614E4426603E46E7
:103DEC006561A5EB0905A560BE4200D93E46324689
:103DFC004146206800F0AAFA0020A3689B1BA36030
:103E0C00236833442360BDE8F0872A4600F0D6FAD5
:103E1C0006460028E0D150462169FFF7B9FE0C2375
:103E2C00CAF80030A3894FF0FF3043F04003A38160
:103E3C00E9E700002DE9F04F98468B8907461B06F1
:103E4C000D4614469DB010D50B6973B94021FFF790
:103E5C0009FF2860286130B90C233B604FF0FF301C
:103E6C001DB0BDE8F08F40236B6100230993202324
:103E7C008DF8293030234FF00109CDF80C80DFF894
:103E8C0098818DF82A3023469A4613F8012B0AB1F3
:103E9C00252AF9D1BAEB040B0BD05B4622462946F6
:103EAC003846FFF76BFF013000F0A780099A5A449F
:103EBC0009929AF80030002B00F09F8000234FF0FD
:103ECC00FF32CDE905230AF1010A049307938DF81B
:103EDC0053301A935446052214F8011B4E4800F037
:103EEC005FFA049AD8B9D00644BF20238DF853301A
:103EFC00110744BF2B238DF853309AF800302A2B2E
:103F0C0015D0544600204FF00A0C079A214611F8A0
:103F1C00013B303B092B4BD9B0B1079214E0A0EB1D
:103F2C00080309FA03F31343A2460493D2E7039B55
:103F3C00191D1B680391002BBBBF5B4242F00202B0
:103F4C0007930793B8BF049223782E2B0AD163787A
:103F5C002A2B32D1039B02341A1D1B68039243EAAD
:103F6C00E3730593DFF8B4A003225046217800F0E8
:103F7C0017FA38B14022049BA0EB0A00824013438D
:103F8C000134049314F8011B062225488DF82810DF
:103F9C0000F006FA002836D0224B1BBB039B0733DC
:103FAC0023F0070308330393099B334409936AE70F
:103FBC000C4601200CFB0232A8E700234FF00A0C40
:103FCC00194601340593204610F8012B303A092A82
:103FDC0003D9002BC6D00591C4E7044601230CFB82
:103FEC000121F0E703AB00932A4638460E4B04A997
:103FFC00AFF30080421C0646D6D1AB895B063FF579
:10400C002DAF09982CE703AB00932A463846064B94
:10401C0004A900F07DF8EDE70A53000810530008DE
:10402C001453000800000000893D00082DE9F047FA
:10403C00164698468A680B6907469342B8BF1346E2
:10404C00336091F843200C46DDF820900AB101331F
:10405C0033602368990642BF3368023333602568A6
:10406C0015F0060506D104F1190AE36832689B1AAB
:10407C00AB422BDC94F843302268003B18BF012381
:10408C00920630D44146384604F14302C847013009
:10409C0023D02368226903F00603042B14BF0025E8
:1040AC0033684FF0000608BFE56804F11A0408BF36
:1040BC00ED1A54F8123C08BF25EAE5759342C4BFCB
:1040CC009B1AED18B5421AD1002008E00123524684
:1040DC0041463846C847013003D14FF0FF30BDE8A8
:1040EC00F0870135C1E73020E11881F843005A1CF4
:1040FC0094F845102244023382F84310C2E701239E
:10410C00224641463846C8470130E6D00136D9E749
:10411C002DE9FF470F7E9146782F80460C469A4634
:10412C000C9E01F1430207D8622F0AD8002F00F031
:10413C00D180582F00F0B88004F1420684F8427008
:10414C003AE0A7F16303152BF6D801A151F823F03F
:10415C00B5410008C9410008454100084541000827
:10416C004541000845410008C94100084541000887
:10417C00454100084541000845410008C742000878
:10418C00F341000881420008454100084541000800
:10419C00E942000845410008F34100084541000888
:1041AC00454100088942000833681A1D1B683260BB
:1041BC0004F1420684F8423001239CE03368206805
:1041CC00191D3160060601D51D6803E04506FBD5B7
:1041DC00B3F90050002D03DA2D236D4284F84330DF
:1041EC000A23584811E021683368080653F8045B29
:1041FC0002D4490648BFADB26F2F336014BF0A23F7
:10420C0008235048002184F843106668002EA660ED
:10421C0005DB21682E4321F0040121604BD01646AA
:10422C00B5FBF3F103FB1157C75D06F8017D2F4673
:10423C00BB420D46F4D9082B0BD12368DF0708D5F8
:10424C00236961689942DEBF302306F8013C06F110
:10425C00FF36921B22614B4621464046CDF800A00A
:10426C0003AAFFF7E3FE01304AD14FF0FF3004B050
:10427C00BDE8F087236843F0200323607827324899
:10428C0084F84570236831681F0651F8045B02D42A
:10429C005F0648BFADB23160D90744BF43F020037D
:1042AC0023601DB11023ADE72648E9E7236823F00E
:1042BC0020032360F6E71646BDE733682568181D12
:1042CC00616930602E061B6801D5196002E0680632
:1042DC00FBD51980002316462361BCE73368002107
:1042EC001A1D32601E686268304600F059F808B139
:1042FC00801B606063682361002384F84330AAE765
:10430C003246494640462369D0470130ADD0236838
:10431C009B0713D4E068039B9842B8BF1846A6E7E6
:10432C000123324649464046D04701309DD00135E5
:10433C00E36803995B1AAB42F2DCEBE7002504F16E
:10434C001906F5E71B5300082C530008884210B5DA
:10435C0001EB020402D98442234607D8431EA14232
:10436C0008D011F8012B03F8012FF8E7014602449D
:10437C008A4200D110BD13F8014D02F8014DF7E748
:10438C0038B50023054D044608462B60FDF76CFC40
:10439C00431C02D12B6803B1236038BD8C0700206D
:1043AC00034610B5C9B202449342184601D100200D
:1043BC0003E0047801338C42F6D110BD2DE9F041B5
:1043CC00074614460D4621B91146BDE8F041FFF7EA
:1043DC0049BC2AB9FFF7DCFB25462846BDE8F0812D
:1043EC0000F01AF88442064602D8B4EB500FF4D809
:1043FC0021463846FFF736FC804608B94546ECE7BF
:10440C00B4422246294628BF3246FFF7B3FB294661
:10441C003846FFF7BDFBF1E751F8043C181F002BA1
:10442C00BCBF0B58C0187047F8B500BFF8BC08BC2F
:10443C009E467047F8B500BFF8BC08BC9E46704756
:10444C0050415353000000004641494C000000000D
:10445C005B25735D2025730D0A0000000D0A2D2DC0
:10446C002D202573202D2D2D0D0A000066726573ED
:10447C006820706167653A206572617365202B2036
:10448C00626C616E6B20636865636B002530386C01
:10449C00583A2025303258202530325820253032D9
:1044AC0058202530325820253032582025303258AB
:1044BC0020253032582025303258202530325820D3
:1044CC0025303258202530325820253032582025BE
:1044DC0030325820253032582025303258202530A3
:1044EC0032580D0A00000000312E20466C617368B2
:1044FC005F4572617365506167652C20466C617312
:10450C00685F52656164427974652F486C66576FB9
:10451C0072642F576F7264004572617365506167E6
:10452C00652072657475726E73204F4B000000002D
:10453C007061676520726561647320626C616E6B7B
:10454C0020616674657220657261736500000000FD
:10455C005265616442797465206F6E20626C616E85
:10456C006B20666C617368203D3D203078464600B8
:10457C0052656164486C66576F7264206F6E20627E
:10458C006C616E6B20666C617368203D3D203078E9
:10459C00464646460000000052656164576F7264DF
:1045AC00206F6E20626C616E6B20666C617368208C
:1045BC003D3D20307846464646464646460000007D
:1045CC0065726173696E6720616E20616C726561E2
:1045DC0064792D626C616E6B207061676520697304
:1045EC00204F4B00666C6173682069732072652DD7
:1045FC006C6F636B656420616674657220657261B3
:10460C0073650000322E20466C6173685F577269C7
:10461C007465576F72642C205772697465486C66A8
:10462C00576F72642C2057726974654279746500F7
:10463C005772697465576F72642072657475726E07
:10464C0073204F4B000000005772697465576F72EE
:10465C00643A2052656164576F7264206D617463B3
:10466C00686573005772697465576F72643A2052AB
:10467C00656164486C66576F7264206C6F772F6845
:10468C00696768206D617463680000005772697413
:10469C0065576F72643A2062797465732061726534
:1046AC00206C6974746C652D656E6469616E0000B4
:1046BC005772697465486C66576F726420726574C2
:1046CC0075726E73204F4B005772697465486C6637
:1046DC00576F72643A2052656164486C66576F720A
:1046EC0064206D61746368657300000057726974AF
:1046FC0065486C66576F72643A20627974657320F2
:10470C00617265206C6974746C652D656E64696189
:10471C006E0000005772697465486C66576F72645E
:10472C003A206E65696768626F7572696E6720689A
:10473C00616C66776F726420756E746F75636865F3
:10474C0064000000577269746542797465202865AD
:10475C0076656E2061646472292072657475726E60
:10476C0073204F4B000000005772697465427974D6
:10477C006520286576656E2061646472293A20761E
:10478C00616C7565202B2070616464696E67000034
:10479C0057726974654279746520286F646420616E
:1047AC00646472292072657475726E73204F4B00AD
:1047BC0057726974654279746520286F646420614E
:1047CC00646472293A2076616C7565202B207061C7
:1047DC006464696E67000000666C617368206973BD
:1047EC002072652D6C6F636B6564206166746572F5
:1047FC00207772697465204150497300577269744F
:10480C0065486C66576F7264206F766572207072A3
:10481C006F6772616D6D65642068616C66776F722D
:10482C0064206661696C730020202E2E2E6F6C64E0
:10483C002068616C66776F726420696E7461637452
:10484C00000000005772697465576F7264206F76B0
:10485C0065722070726F6772616D6D656420776F21
:10486C007264206661696C730000000020202E2E9B
:10487C002E6F6C6420776F726420696E7461637440
:10488C0000000000577269746542797465206F7678
:10489C0065722070726F6772616D6D6564206279EC
:1048AC007465206661696C730000000020202E2E58
:1048BC002E6F6C64206279746520696E7461637408
:1048CC00000000006572726F7220666C6167732065
:1048DC00636C6561726564206166746572206661E3
:1048EC00696C65642077726974657300666C6173BA
:1048FC00682069732072652D6C6F636B6564206131
:10490C0066746572206661696C656420777269747F
:10491C006573000077726974652061667465722036
:10492C006661696C75726573207374696C6C207741
:10493C006F726B7300000000332E20466C6173683D
:10494C005F57726974652A5F427566202F20466C2A
:10495C006173685F526561642A5F4275660000008E
:10496C0062797465206275663A206576656E2061A1
:10497C006464722C206576656E206C656E20283818
:10498C002900000062797465206275663A206576AC
:10499C00656E20616464722C206F6464206C656E9B
:1049AC002028372900000000627974652062756642
:1049BC003A2062797465206166746572206F646454
:1049CC00207461696C206973207374696C6C20307D
:1049DC007846460062797465206275663A206F6489
:1049EC006420616464722C206576656E206C656E43
:1049FC0020283629000000006279746520627566F3
:104A0C003A2062797465206265666F7265206F6406
:104A1C00642068656164206973207374696C6C2010
:104A2C003078464600000000627974652062756635
:104A3C003A2062797465206166746572206F6464D3
:104A4C002D616464722077726974652069732073B8
:104A5C0074696C6C2030784646000000627974658D
:104A6C00206275663A206E3D302072657475726EE8
:104A7C0073204F4B20616E642077726974657320CC
:104A8C006E6F7468696E670068616C66776F7264CC
:104A9C00206275663A2077726974652038202B2065
:104AAC0072656164206261636B00000068616C6612
:104ABC00776F7264206275663A2063726F73732D20
:104ACC00636865636B207769746820466C617368F2
:104ADC005F52656164576F7264000000776F726497
:104AEC00206275663A2077726974652038202B2015
:104AFC0072656164206261636B000000776F7264A1
:104B0C00206275663A2063726F73732D63686563F8
:104B1C006B207769746820466C6173685F526561BD
:104B2C0064486C66576F72640000000068616C66C4
:104B3C00776F7264206275663A20777269746520AB
:104B4C006F766572206E6F6E2D6572617365642071
:104B5C006661696C73202850474552522900000049
:104B6C0068616C66776F7264206275663A20666164
:104B7C00696C6564207772697465206C6566742055
:104B8C006F6C64206461746120696E74616374007D
:104B9C00776F7264206275663A207772697465204B
:104BAC006F766572206E6F6E2D6572617365642011
:104BBC006661696C732028504745525229000000E9
:104BCC00776F7264206275663A206661696C656401
:104BDC00207772697465206C656674206F6C642034
:104BEC006461746120696E746163740062797465C8
:104BFC00206275663A207772697465206F766572EB
:104C0C00206E6F6E2D657261736564206661696CD0
:104C1C007320285047455252290000006279746570
:104C2C00206275663A206661696C656420777269EA
:104C3C007465206C656674206F6C642064617461AB
:104C4C0020696E74616374006572726F7220666C99
:104C5C0061677320636C656172656420616674655D
:104C6C0072206661696C6564206275666665722087
:104C7C007772697465730000666C61736820697380
:104C8C002072652D6C6F636B656420616674657250
:104C9C0020627566666572207772697465730000B0
:104CAC0068616C66776F7264206275663A20666123
:104CBC00696C757265206D69642D627566666572C6
:104CCC002072657475726E732030000020202E2EB9
:104CDC002E68616C66776F726473206265666F72A2
:104CEC006520746865206661696C757265207765EE
:104CFC007265207772697474656E000020202E2E08
:104D0C002E68616C66776F7264732061667465726D
:104D1C0020746865206661696C75726520776572B0
:104D2C0065206E6F740000007265636F7665727932
:104D3C003A2076616C6964207772697465206166CB
:104D4C00746572206661696C65642077726974653C
:104D5C00730000000D0A44756D70202530386C58B6
:104D6C002E2E2530386C583A0D0A00007E7E11111B
:104D7C0022223333342E2046756C6C2031204B426A
:104D8C002070616765207468726F75676820656153
:104D9C006368206275666665722077726974652037
:104DAC00415049005772697465427974655F427568
:104DBC00663A203130323420627974657320726522
:104DCC007475726E73204F4B00000000577269743B
:104DDC0065427974655F4275663A20313032342011
:104DEC0062797465732076657269667900000000DB
:104DFC005772697465486C66576F72645F4275666A
:104E0C003A203531322068616C66776F726473209A
:104E1C0072657475726E73204F4B00005772697413
:104E2C0065486C66576F72645F4275663A2035311F
:104E3C00322068616C66776F726473207665726974
:104E4C00667900005772697465576F72645F4275BA
:104E5C00663A2032353620776F726473207265742F
:104E6C0075726E73204F4B005772697465576F7271
:104E7C00645F4275663A2032353620776F72647300
:104E8C00207665726966790052656164576F726449
:104E9C005F427566206D69642D70616765206D6178
:104EAC00746368657300000052656164486C6657F2
:104EBC006F72645F427566206D69642D7061676501
:104ECC00206D61746368657300000000666C61732B
:104EDC00682069732072652D6C6F636B656420614B
:104EEC00667465722066756C6C2D706167652077D1
:104EFC007269746573000000352E2045726173650C
:104F0C00206265686176696F757200007061676513
:104F1C00206973206E6F7420626C616E6B20626509
:104F2C00666F72652065726173650000457261730E
:104F3C00655061676520776974682061206D6964CC
:104F4C002D7061676520616464726573732072658E
:104F5C007475726E73204F4B0000000020202E2EB3
:104F6C002E7468652077686F6C65207061676520AA
:104F7C00697320626C616E6B0000000077726F7455
:104F8C00652061206D61726B657220776F72642091
:104F9C00696E20626F746820706167657300000031
:104FAC0065726173696E67207061676520363420A5
:104FBC0072657475726E73204F4B000020202E2E7C
:104FCC002E7061676520363420697320626C616EC7
:104FDC006B00000020202E2E2E706167652036336A
:104FEC002066697273742F6C61737420776F7264AE
:104FFC007320756E746F7563686564006572617398
:10500C00696E672070616765203633207669612090
:10501C006D69642061646472657373207265747564
:10502C00726E73204F4B000020202E2E2E70616765
:10503C006520363320697320626C616E6B00000052
:10504C005B534B49505D2074776F2D706167652001
:10505C00657261736520746573743A20706167655D
:10506C0020363320282530386C5829206973206E5F
:10507C006F7420626C616E6B2C206669726D776147
:10508C0072652070726F6261626C79206C697665F2
:10509C00732074686572650D0A000000666C61739C
:1050AC00682069732072652D6C6F636B6564206179
:1050BC00667465722065726173657300362E2048C4
:1050CC0061726477617265206C696D697461746971
:1050DC006F6E7320286578706563746564206265F3
:1050EC00686176696F7572290000000077726974C7
:1050FC0065206F6E652062797465206174206F6421
:10510C006420616464726573730000006E65696786
:10511C0068626F7572206279746520696E207361A4
:10512C006D652068616C66776F72642063616E6E6A
:10513C006F74206265207772697474656E202865BF
:10514C0078706563746564206661696C2900000081
:10515C0020202E2E2E68616C66776F726420756E1F
:10516C006368616E67656400626F7468206279744D
:10517C006573207772697474656E20696E206F6E2A
:10518C00652063616C6C20776F726B73000000009C
:10519C0061636365707465640000000072656A6524
:1051AC0063746564000000005B494E464F5D2070DF
:1051BC00726F6772616D6D696E6720307830303058
:1051CC0030206F76657220612070726F6772616D2E
:1051DC006D65642068616C66776F72643A20257324
:1051EC002C20726561647320253034580D0A000040
:1051FC000D0A3D3D3D2053544D3332463130332062
:10520C00666C617368206C69627261727920646586
:10521C006D6F6E7374726174696F6E203D3D3D0DE0
:10522C000A000000536372617463682070616765E3
:10523C003A202530386C582E2E2530386C580D0AF3
:10524C0000000000372E20436C65616E7570000005
:10525C0066696E616C20657261736500706167656B
:10526C0020726561647320626C616E6B2061667480
:10527C0065722066696E616C2065726173650000F1
:10528C00666C617368206973206C6F636B65642056
:10529C0061742074686520656E6400000D0A3D3DE4
:1052AC003D20446F6E653A20256C752070617373D8
:1052BC0065642C20256C75206661696C65642C20F6
:1052CC00256C7520736B6970706564203D3D3D0DD8
:1052DC000A000000000000000000000001020304AE
:1052EC00060708090000000001020304020304057C
:1052FC00060708090A0B0C0D0E0F10100102232DC6
:10530C00302B2000686C4C006566674546470030C2
:10531C00313233343536373839414243444546000F
:10532C00303132333435363738396162636465660F
:04533C00000000006D
:085340000CAEFF7F010000002C
:045348003101000827
:04534C000D01000847
:1053500000127A0010000000010000001000002080
:105360000000000054060020BC0600202407002096
:10537000000000000000000000000000000000002D
:10538000000000000000000000000000000000001D
:10539000000000000000000000000000000000000D
:0C53A00000000000000000000000000001
:0400000508001CEDE6
:00000001FF
